:020000040800F2
:1000000000280020A5080008490800084F0800083B
:10001000550800085B08000861080008000000009F
:100020000000000000000000000000006708000859
:1000300073080008000000007F0800088B08000813
:10004000ED080008ED080008ED080008ED080008BC
:10005000ED080008ED080008ED080008ED080008AC
:10006000ED080008ED080008ED080008ED0800089C
:10007000ED080008ED080008ED080008ED0800088C
:10008000ED080008ED080008ED080008ED0800087C
:10009000ED080008ED080008ED080008ED0800086C
:1000A000ED080008ED080008ED080008ED0800085C
:1000B000ED080008ED08000800000000ED08000849
:1000C000ED0800080000000000000000ED08000836
:1000D00000000000ED080008ED0800080000000026
:1000E000ED080008ED080008ED0800080000000019
:1000F0000000000000000000000000000000000000
:0C01000000000000000000005FF808F1A3
:10010C0010B5054C237833B9044B13B10448AFF345
:10011C0000800123237010BD180000200000000097
:10012C00041C000808B5034B1BB103490348AFF38B
:10013C00008008BD000000001C000020041C00080A
:10014C0080B500AF7D4B1B68042B00F2EC8001A244
:10015C0052F823F07501000897010008F30100081C
:10016C0063020008C302000800F07CF9734B012203
:10017C001A60734B1B68642202FB03F3184600F0F1
:10018C00BFFA642000F0D0FAD6E000F0E7F800F0F7
:10019C0053F96C4B1B68012B14D1642000F0C4FA8A
:1001AC00694B1B68013B684A1360684B1B68013B39
:1001BC00664A1360654B1B68002B03DC644B1B68A1
:1001CC00624A1360634B1B68012B40F0AE80604B9E
:1001DC001B68642202FB03F3184600F091FA574B9C
:1001EC0002221A60A1E000F0B9F800F00FF9554BAB
:1001FC001B68012B1CD1642000F096FA524B1B6833
:10020C00013B514A1360504B1B68002B03DC4C4BD9
:10021C001B684D4A13604D4B1B68013B4B4A1360E6
:10022C004A4B1B68002B03DC4B4B1B68474A136083
:10023C00484B1B68012B7AD1414B1B68642202FB93
:10024C0003F3184600F05CFA642000F06DFA3B4BA7
:10025C0003221A606BE000F0ADF800F0C1F8394BE6
:10026C001B68012B14D1642000F05EFA374B1B681D
:10027C00013B364A1360344B1B68013B324A136016
:10028C00314B1B68002B03DC314B1B682E4A13606F
:10029C00304B1B68012B4CD12D4B1B68642202FB8D
:1002AC0003F3184600F02CFA642000F03DFA234BBF
:1002BC0004221A603DE000F067F800F091F8214B41
:1002CC001B68012B1CD1642000F02EFA1F4B1B68FD
:1002DC00013B1E4A13601D4B1B68002B03DC184BA3
:1002EC001B681A4A1360184B1B68013B164A1360B3
:1002FC00154B1B68002B03DC174B1B68124A136051
:10030C00144B1B68012B16D10D4B1B68642202FB8E
:10031C0003F3184600F0F4F9642000F005FA074BDB
:10032C0001221A6007E000BF06E000BF04E000BF36
:10033C0002E000BF00E000BF00BF80BD3400002021
:10034C00080000204C000020380000203C00002059
:10035C0004000020440000200000002080B500AF05
:10036C0000220221074800F07DFD012204210548EE
:10037C0000F078FD01220821024800F073FD00BF57
:10038C0080BD00BF0008014080B500AF01220221F2
:10039C00074800F067FD00220421054800F062FDCB
:1003AC0001220821024800F05DFD00BF80BD00BFA6
:1003BC000008014080B500AF01220221074800F07F
:1003CC0051FD01220421054800F04CFD00220821BA
:1003DC00024800F047FD00BF80BD00BF000801408F
:1003EC0080B500AF00221021074800F03BFD012230
:1003FC002021054800F036FD01224021024800F082
:10040C0031FD00BF80BD00BF0008014080B500AFCA
:10041C0001221021074800F025FD0022202105486B
:10042C0000F020FD01224021024800F01BFD00BF1E
:10043C0080BD00BF0008014080B500AF0122102133
:10044C00074800F00FFD01222021054800F00AFDAD
:10045C0000224021024800F005FD00BF80BD00BF16
:10046C000008014080B500AF012202210E4800F0C7
:10047C00F9FC012204210C4800F0F4FC01220821B3
:10048C00094800F0EFFC01221021074800F0EAFCBB
:10049C0001222021044800F0E5FC01224021024801
:1004AC0000F0E0FC00BF80BD0008014080B500AF4B
:1004BC0000F018FA00F028F80D4801F017F900F0D8
:1004CC00ABF800F05DF80B4B1B680B4A13600B4B41
:1004DC001B680B4A1360012000F03AF9012000F070
:1004EC004BF9084B00221A60FFF72AFEFCE700BF0D
:1004FC0060000020000000203800002008000020D0
:10050C003C0000203400002080B590B000AF07F113
:10051C00180328220021184601F066FB3B1D00221F
:10052C001A605A609A60DA601A610223BB61012377
:10053C00BB621023FB6200237B6307F11803184690
:10054C0000F0A8FC0346002B01D000F0D3F80F23D9
:10055C007B600023BB600023FB6000233B61002316
:10056C007B613B1D0021184600F014FF0346002B55
:10057C0001D000F0BFF800BF4037BD4680BD000081
:10058C0080B586B000AF07F1080300221A605A60EC
:10059C009A60DA603B4600221A605A601D4B4FF09D
:1005AC0080421A601B4B41F63F725A60194B002275
:1005BC009A60184B0922DA60164B00221A61154B0F
:1005CC0000229A61134801F041F80346002B01D038
:1005DC0000F090F84FF48053BB6007F10803194604
:1005EC000C4801F0CFF80346002B01D000F082F844
:1005FC0000233B6000237B603B461946054801F015
:10060C0077FA0346002B01D000F074F800BF1837BE
:10061C00BD4680BD6000002080B586B000AF07F1FC
:10062C00080300221A605A609A60DA602E4B9B69AC
:10063C002D4A43F0040393612B4B9B6903F0040395
:10064C007B607B68284B9B69274A43F008039361C6
:10065C00254B9B6903F008033B603B6800227E211D
:10066C00224800F0FFFB00224CF2FF71204800F002
:10067C00F9FB7E23BB600123FB6000233B6102235B
:10068C007B6107F108031946184800F071FA4CF227
:10069C00FF73BB600123FB6000233B6102237B6182
:1006AC0007F108031946124800F062FA4FF4605340
:1006BC00BB600023FB6001233B6107F10803194673
:1006CC000B4800F055FA4FF46053BB600023FB60FD
:1006DC0001233B6107F108031946044800F048FA6E
:1006EC0000BF1837BD4680BD001002400008014015
:1006FC00000C014080B400AF72B600BFFEE70000F2
:10070C0080B483B000AF7860054A7B681360054BFA
:10071C0000221A6000BF0C37BD4680BC704700BF7A
:10072C00400000204400002080B483B000AF78600B
:10073C00054A7B681360054B00221A6000BF0C371A
:10074C00BD4680BC704700BF480000204C00002014
:10075C0080B483B000AF7860054A7B681360054BAA
:10076C0000221A6000BF0C37BD4680BC704700BF2A
:10077C00500000205400002080B483B000AF78609B
:10078C00054A7B681360054B00221A6000BF0C37CA
:10079C00BD4680BC704700BF580000205C000020A4
:1007AC0080B485B000AF154B9B69144A43F001032C
:1007BC009361124B9B6903F00103BB60BB680F4B49
:1007CC00DB690E4A43F08053D3610C4BDB6903F0B9
:1007DC0080537B607B680A4B5B68FB60FB6823F093
:1007EC00E063FB60FB6843F08063FB60044AFB68DA
:1007FC00536000BF1437BD4680BC704700100240E8
:10080C000000014080B485B000AF78607B681B6845
:10081C00B3F1804F0BD1084BDB69074A43F001035E
:10082C00D361054BDB6903F00103FB60FB6800BF80
:10083C001437BD4680BC70470010024080B400AF36
:10084C00FEE780B400AFFEE780B400AFFEE780B4F3
:10085C0000AFFEE780B400AFFEE780B400AF00BF8E
:10086C00BD4680BC704780B400AF00BFBD4680BCA5
:10087C00704780B400AF00BFBD4680BC704780B5E8
:10088C0000AF00F075F800BF80BD80B400AF00BFB2
:10089C00BD4680BC70470000FFF7F7FF0B480C49C2
:1008AC000C4A002302E0D458C4500433C4188C42C0
:1008BC00F9D3094A094C002301E013600432A24227
:1008CC00FBD301F06DF9FFF7F1FD7047000000203C
:1008DC0018000020481C000818000020AC00002064
:1008EC00FEE7000080B500AF084B1B68074A43F0D9
:1008FC0010031360032000F007F90F2000F008F834
:10090C00FFF74EFF0023184680BD00BF00200240B9
:10091C0080B582B000AF7860124B1A68124B1B780E
:10092C0019464FF47A73B3FBF1F3B2FBF3F31846A9
:10093C0000F011F90346002B01D001230EE07B6877
:10094C000F2B0AD8002279684FF0FF3000F0E7F83F
:10095C00064A7B681360002300E001231846083721
:10096C00BD4680BD0C0000201400002010000020AB
:10097C0080B400AF054B1B781A46054B1B6813441B
:10098C00034A136000BFBD4680BC704714000020B2
:10099C00A800002080B400AF024B1B681846BD466F
:1009AC0080BC7047A800002080B485B000AF786090
:1009BC007B6803F00703FB600C4BDB68BB60BA6819
:1009CC004FF6FF031340BB60FB681A02BB6813436E
:1009DC0043F0BF6343F40033BB60044ABB68D3608D
:1009EC0000BF1437BD4680BC704700BF00ED00E06F
:1009FC0080B400AF044BDB681B0A03F007031846F6
:100A0C00BD4680BC704700BF00ED00E080B483B0F1
:100A1C0000AF03463960FB7197F90730002B0ADBF6
:100A2C003B68DAB20C4997F907301201D2B20B4489
:100A3C0083F800230AE03B68DAB20849FB7903F03B
:100A4C000F03043B1201D2B20B441A7600BF0C37D1
:100A5C00BD4680BC704700BF00E100E000ED00E047
:100A6C0080B489B000AFF860B9607A60FB6803F0BD
:100A7C000703FB61FB69C3F10703042B28BF0423A5
:100A8C00BB61FB690433062B02D9FB69033B00E015
:100A9C0000237B614FF0FF32BB6902FA03F3DA43A8
:100AAC00BB681A407B699A404FF0FF317B6901FAB1
:100ABC0003F3D9437B680B40134318462437BD46D8
:100ACC0080BC704780B582B000AF78607B68013B1A
:100ADC00B3F1807F01D301230FE00A4A7B68013B0D
:100AEC0053600F214FF0FF30FFF790FF054B0022B2
:100AFC009A60044B07221A60002318460837BD463B
:100B0C0080BD00BF10E000E080B582B000AF78601F
:100B1C007868FFF749FF00BF0837BD4680BD80B538
:100B2C0086B000AF0346B9607A60FB7300237B612B
:100B3C00FFF75EFF78617A68B9687869FFF790FF14
:100B4C00024697F90F3011461846FFF75FFF00BFBA
:100B5C001837BD4680BD80B582B000AF786078682C
:100B6C00FFF7B0FF034618460837BD4680BD0000AE
:100B7C0080B48BB000AF7860396000237B620023B7
:100B8C003B6248E101227B6A02FA03F3FB613B689A
:100B9C001B68FA691340BB61BA69FB699A4240F061
:100BAC0037813B685B68A34A93425ED0A14A93426B
:100BBC0075D8A14A934258D09F4A93426FD89F4A06
:100BCC00934252D09D4A934269D89D4A93424CD04D
:100BDC009B4A934263D89B4A934246D0994A93428C
:100BEC005DD8122B2AD8122B59D801A252F823F017
:100BFC00770C0008510C0008630C0008A50C0008C9
:100C0C00AB0C0008AB0C0008AB0C0008AB0C0008DC
:100C1C00AB0C0008AB0C0008AB0C0008AB0C0008CC
:100C2C00AB0C0008AB0C0008AB0C0008AB0C0008BC
:100C3C00AB0C0008590C00086D0C0008824A93425A
:100C4C0013D02CE03B68DB683B6229E03B68DB6837
:100C5C0004333B6224E03B68DB6808333B621FE0F3
:100C6C003B68DB680C333B621AE03B689B68002BEB
:100C7C0002D104233B6213E03B689B68012B05D136
:100C8C0008233B627B68FA691A6109E008233B621E
:100C9C007B68FA695A6103E000233B6200E000BF05
:100CAC00BB69FF2B01D87B6801E07B6804337B6157
:100CBC00BB69FF2B02D87B6A9B0002E07B6A083B76
:100CCC009B003B617B691A680F213B6901FA03F3B6
:100CDC00DB431A40396A3B6901FA03F31A437B6917
:100CEC001A603B685B6803F08053002B00F0908027
:100CFC00564B9B69554A43F001039361534B9B69D7
:100D0C0003F00103BB60BB68514A7B6A9B0802334A
:100D1C0052F82330FB607B6A03F003039B000F2225
:100D2C0002FA03F3DB43FA681340FB607B68494A21
:100D3C0093420DD07B68484A934207D07B68474A60
:100D4C00934201D1022304E0032302E0012300E0DB
:100D5C0000237A6A02F0030292009340FA6813436C
:100D6C00FB603B497B6A9B080233FA6841F82320FD
:100D7C003B685B6803F48013002B06D0384B9A68F1
:100D8C003749BB6913438B6006E0354B9A68BB69E6
:100D9C00DB43334913408B603B685B6803F40013FF
:100DAC00002B06D02E4BDA682D49BB691343CB6060
:100DBC0006E02B4BDA68BB69DB4329491340CB6057
:100DCC003B685B6803F40033002B06D0244B5A6855
:100DDC002349BB6913434B6006E0214B5A68BB693E
:100DEC00DB431F4913404B603B685B6803F4803363
:100DFC00002B06D01A4B1A681949BB6913430B60B8
:100E0C0006E0174B1A68BB69DB43154913400B60AE
:100E1C007B6A01337B623B681A687B6A22FA03F3B4
:100E2C00002B7FF4AFAE00BF00BF2C37BD4680BC9B
:100E3C00704700BF0000321000003110000022107B
:100E4C0000002110000012100000111000100240D0
:100E5C000000014000080140000C0140001001405E
:100E6C000004014080B483B000AF78600B467B80F7
:100E7C0013467B707B78002B03D07A887B681A61D1
:100E8C0003E07B881A047B681A6100BF0C37BD46EF
:100E9C0080BC704780B586B000AF78607B68002B53
:100EAC0001D101236CE27B681B6803F00103002B6A
:100EBC0000F08780924B5B6803F00C03042B0CD082
:100ECC008F4B5B6803F00C03082B12D18C4B5B68C7
:100EDC0003F48033B3F5803F0BD1894B1B6803F4CB
:100EEC000033002B6CD07B685B68002B68D101232E
:100EFC0046E27B685B68B3F5803F06D1804B1B688C
:100F0C007F4A43F4803313602EE07B685B68002BD0
:100F1C000CD17B4B1B687A4A23F480331360784BDB
:100F2C001B68774A23F4802313601DE07B685B68A1
:100F3C00B3F5A02F0CD1724B1B68714A43F480237C
:100F4C0013606F4B1B686E4A43F4803313600BE0E5
:100F5C006B4B1B686A4A23F480331360684B1B6825
:100F6C00674A23F4802313607B685B68002B13D0E3
:100F7C00FFF710FD386108E0FFF70CFD02463B69F6
:100F8C00D31A642B01D90323FAE15D4B1B6803F4DC
:100F9C000033002BF0D014E0FFF7FCFC386108E0C4
:100FAC00FFF7F8FC02463B69D31A642B01D90323E3
:100FBC00E6E1534B1B6803F40033002BF0D100E047
:100FCC0000BF7B681B6803F00203002B63D04C4B03
:100FDC005B6803F00C03002B0BD0494B5B6803F0F0
:100FEC000C03082B1CD1464B5B6803F48033002B9D
:100FFC0016D1434B1B6803F00203002B05D07B6812
:10100C001B69012B01D00123BAE13D4B1B6823F076
:10101C00F8027B685B69DB00394913430B603AE0EB
:10102C007B681B69002B20D0364B01221A60FFF71E
:10103C00B1FC386108E0FFF7ADFC02463B69D31AFE
:10104C00022B01D903239BE12D4B1B6803F00203F8
:10105C00002BF0D02A4B1B6823F0F8027B685B69ED
:10106C00DB00274913430B6015E0264B00221A6066
:10107C00FFF790FC386108E0FFF78CFC02463B69F7
:10108C00D31A022B01D903237AE11D4B1B6803F001
:10109C000203002BF0D17B681B6803F00803002BC4
:1010AC003AD07B689B69002B19D0174B01221A6030
:1010BC00FFF770FC386108E0FFF76CFC02463B69F7
:1010CC00D31A022B01D903235AE10D4B5B6A03F0AF
:1010DC000203002BF0D0012000F09AFA1CE00A4B1E
:1010EC0000221A60FFF756FC38610FE0FFF752FC44
:1010FC0002463B69D31A022B08D9032340E100BFF7
:10110C000010024000004242800442429E4B5B6A47
:10111C0003F00203002BE9D17B681B6803F0040386
:10112C00002B00F0A6800023FB75974BDB6903F0C6
:10113C008053002B0DD1944BDB69934A43F08053C1
:10114C00D361914BDB6903F08053BB60BB68012317
:10115C00FB758E4B1B6803F48073002B18D18B4BE3
:10116C001B688A4A43F480731360FFF713FC3861E1
:10117C0008E0FFF70FFC02463B69D31A642B01D938
:10118C000323FDE0814B1B6803F48073002BF0D02C
:10119C007B68DB68012B06D17B4B1B6A7A4A43F0D8
:1011AC00010313622DE07B68DB68002B0CD1764BBE
:1011BC001B6A754A23F001031362734B1B6A724A54
:1011CC0023F0040313621CE07B68DB68052B0CD155
:1011DC006D4B1B6A6C4A43F0040313626A4B1B6A27
:1011EC00694A43F0010313620BE0674B1B6A664AC2
:1011FC0023F001031362644B1B6A634A23F004035C
:10120C0013627B68DB68002B15D0FFF7C3FB3861DA
:10121C000AE0FFF7BFFB02463B69D31A41F2883262
:10122C00934201D90323ABE0574B1B6A03F0020333
:10123C00002BEED014E0FFF7ADFB38610AE0FFF7AE
:10124C00A9FB02463B69D31A41F28832934201D979
:10125C00032395E04C4B1B6A03F00203002BEED1E9
:10126C00FB7D012B05D1484BDB69474A23F08053AA
:10127C00D3617B68DB69002B00F08180424B5B689B
:10128C0003F00C03082B61D07B68DB69022B46D181
:10129C003F4B00221A60FFF77DFB386108E0FFF737
:1012AC0079FB02463B69D31A022B01D9032367E071
:1012BC00354B1B6803F00073002BF0D17B681B6A65
:1012CC00B3F5803F08D1304B5B6823F400327B6868
:1012DC009B682D4913434B602B4B5B6823F47412B2
:1012EC007B68196A7B685B6A0B43274913434B6025
:1012FC00274B01221A60FFF74DFB386108E0FFF71E
:10130C0049FB02463B69D31A022B01D9032337E070
:10131C001D4B1B6803F00073002BF0D02FE01C4B0F
:10132C0000221A60FFF736FB386108E0FFF732FB4A
:10133C0002463B69D31A022B01D9032320E0124B3E
:10134C001B6803F00073002BF0D118E07B68DB699D
:10135C00012B01D1012313E00B4B5B68FB60FB6895
:10136C0003F480327B681B6A9A4206D1FB6803F453
:10137C0070127B685B6A9A4201D0012300E0002363
:10138C0018461837BD4680BD001002400070004062
:10139C006000424280B584B000AF786039607B68F1
:1013AC00002B01D10123D0E06A4B1B6803F007032B
:1013BC003A689A4210D9674B1B6823F007026549BB
:1013CC003B6813430B60634B1B6803F007033A68DD
:1013DC009A4201D00123B8E07B681B6803F002033A
:1013EC00002B20D07B681B6803F00403002B05D076
:1013FC00594B5B68584A43F4E06353607B681B6845
:10140C0003F00803002B05D0534B5B68524A43F49E
:10141C0060535360504B5B6823F0F0027B689B6811
:10142C004D4913434B607B681B6803F00103002B91
:10143C0040D07B685B68012B07D1474B1B6803F4DA
:10144C000033002B15D101237FE07B685B68022BF6
:10145C0007D1414B1B6803F00073002B09D101230A
:10146C0073E03D4B1B6803F00203002B01D10123F9
:10147C006BE0394B5B6823F003027B685B68364991
:10148C0013434B60FFF786FAF8600AE0FFF782FA25
:10149C000246FB68D31A41F28832934201D90323E6
:1014AC0053E02D4B5B6803F00C027B685B689B0080
:1014BC009A42EBD1274B1B6803F007033A689A4218
:1014CC0010D2244B1B6823F0070222493B681343BC
:1014DC000B60204B1B6803F007033A689A4201D05B
:1014EC00012332E07B681B6803F00403002B08D057
:1014FC00194B5B6823F4E0627B68DB681649134385
:10150C004B607B681B6803F00803002B09D0124B5F
:10151C005B6823F460527B681B69DB000E49134344
:10152C004B6000F021F802460B4B5B681B0903F083
:10153C000F030A49CB5C22FA03F3094A1360094BE7
:10154C001B681846FFF7E4F9002318461037BD4610
:10155C0080BD00BF00200240001002401C1C00088F
:10156C000C0000201000002080B487B000AF0023D6
:10157C00FB600023BB6000237B6100237B600023A6
:10158C003B611E4B5B68FB60FB6803F00C03042B98
:10159C0002D0082B03D027E0194B3B6127E0FB68F6
:1015AC009B0C03F00F03174AD35C7B60FB6803F4BE
:1015BC008033002B10D0114B5B685B0C03F00103E4
:1015CC00114AD35CBB607B680D4A02FB03F2BB681B
:1015DC00B2FBF3F37B6104E07B680C4A02FB03F380
:1015EC007B617B693B6102E0054B3B6100BF3B6962
:1015FC0018461C37BD4680BC704700BF0010024027
:10160C0000127A002C1C00083C1C000800093D004C
:10161C0080B485B000AF78600A4B1B680A4AA2FB05
:10162C0003235B0A7A6802FB03F3FB6000BFFB68D1
:10163C005A1EFA60002BF9D100BF00BF1437BD460B
:10164C0080BC70470C000020D34D621080B582B076
:10165C0000AF78607B68002B01D1012341E07B68EF
:10166C0093F83D30DBB2002B06D17B68002283F867
:10167C003C207868FFF7C6F87B68022283F83D208F
:10168C007B681A687B6804331946104600F042F9EF
:10169C007B68012283F846207B68012283F83E2078
:1016AC007B68012283F83F207B68012283F840206D
:1016BC007B68012283F841207B68012283F8422059
:1016CC007B68012283F843207B68012283F8442045
:1016DC007B68012283F845207B68012283F83D203A
:1016EC00002318460837BD4680BD000080B485B085
:1016FC0000AF78607B6893F83D30DBB2012B01D0F2
:10170C00012335E07B68022283F83D207B681B684F
:10171C00DA687B681B6842F00102DA607B681B6840
:10172C00164A934209D07B681B68B3F1804F04D0F2
:10173C007B681B68124A934211D17B681B689B68BB
:10174C0003F00703FB60FB68062B10D07B681B685B
:10175C001A687B681B6842F001021A6007E07B681C
:10176C001B681A687B681B6842F001021A60002330
:10177C0018461437BD4680BC704700BF002C014092
:10178C000004004080B584B000AF7860396000235D
:10179C00FB737B6893F83C30012B01D10223B4E03E
:1017AC007B68012283F83C207B68022283F83D2071
:1017BC007B681B689B68BB60BB6823F07703BB60CE
:1017CC00BB6823F47F43BB607B681B68BA689A6074
:1017DC003B681B68B3F5005F3ED0B3F5005F00F2C9
:1017EC008780B3F5805F00F08680B3F5805F7FD88B
:1017FC00702B1AD0702B7BD8602B50D0602B77D8E5
:10180C00502B3CD0502B73D8402B58D0402B6FD83A
:10181C00302B64D0302B6BD8202B60D0202B67D88A
:10182C00002B5CD0102B5AD062E07B6818683B68A8
:10183C0099683B685A683B68DB6800F03AF97B684A
:10184C001B689B68BB60BB6843F07703BB607B681D
:10185C001B68BA689A604FE07B6818683B689968A7
:10186C003B685A683B68DB6800F023F97B681B68AF
:10187C009A687B681B6842F480429A603CE07B6803
:10188C0018683B6859683B68DB681A4600F09AF8A0
:10189C007B681B685021184600F0F1F82CE07B683F
:1018AC0018683B6859683B68DB681A4600F0B8F862
:1018BC007B681B686021184600F0E1F81CE07B682F
:1018CC0018683B6859683B68DB681A4600F07AF880
:1018DC007B681B684021184600F0D1F80CE07B684F
:1018EC001A683B681B681946104600F0C8F803E0FC
:1018FC000123FB7300E000BF7B68012283F83D20CD
:10190C007B68002283F83C20FB7B18461037BD46D1
:10191C0080BD000080B485B000AF786039607B6812
:10192C001B68FB607B68254A934207D07B68B3F148
:10193C00804F03D07B68224A934208D1FB6823F086
:10194C007003FB603B685B68FA681343FB607B6861
:10195C001A4A934207D07B68B3F1804F03D07B685F
:10196C00174A934208D1FB6823F44073FB603B6831
:10197C00DB68FA681343FB60FB6823F080023B686A
:10198C005B691343FB607B68FA681A603B689A6872
:10199C007B68DA623B681A687B689A627B68074AE4
:1019AC00934203D13B681A697B681A637B680122F6
:1019BC005A6100BF1437BD4680BC7047002C0140F3
:1019CC000004004080B487B000AFF860B9607A6062
:1019DC00FB681B6A7B61FB681B6A23F00102FB68D6
:1019EC001A62FB689B693B613B6923F0F0033B6126
:1019FC007B681B013A6913433B617B6923F00A0343
:101A0C007B617A69BB6813437B61FB683A699A61B5
:101A1C00FB687A691A6200BF1C37BD4680BC7047F0
:101A2C0080B487B000AFF860B9607A60FB681B6A5D
:101A3C007B61FB681B6A23F01002FB681A62FB686F
:101A4C009B693B613B6923F470433B617B681B03DF
:101A5C003A6913433B617B6923F0A0037B61BB684C
:101A6C001B017A6913437B61FB683A699A61FB68D5
:101A7C007A691A6200BF1C37BD4680BC704780B4BF
:101A8C0085B000AF786039607B689B68FB60FB6851
:101A9C0023F07003FB603A68FB68134343F00703C1
:101AAC00FB607B68FA689A6000BF1437BD4680BC47
:101ABC00704780B487B000AFF860B9607A603B6063
:101ACC00FB689B687B617B6923F47F437B613B688C
:101ADC001A027B681A43BB6813437A6913437B6110
:101AEC00FB687A699A6000BF1C37BD4680BC7047A2
:101AFC0080B485B000AF786039607B6893F83C3077
:101B0C00012B01D1022341E07B68012283F83C20A8
:101B1C007B68022283F83D207B681B685B68FB6056
:101B2C007B681B689B68BB60FB6823F07003FB60E1
:101B3C003B681B68FA681343FB607B681B68FA6898
:101B4C005A607B681B68144A934209D07B681B68F7
:101B5C00B3F1804F04D07B681B68104A93420CD1C0
:101B6C00BB6823F08003BB603B685B68BA681343B7
:101B7C00BB607B681B68BA689A607B68012283F83B
:101B8C003D207B68002283F83C2000231846143744
:101B9C00BD4680BC704700BF002C014000040040D3
:101BAC0070B500260C4D0D4C641BA410A64209D137
:101BBC0000F022F800260A4D0A4C641BA410A64221
:101BCC0005D170BD55F8043B98470136EEE755F842
:101BDC00043B98470136F2E7401C0008401C000803
:101BEC00401C0008441C000803460244934200D1E8
:101BFC00704703F8011BF9E7F8B500BFF8BC08BC47
:101C0C009E467047F8B500BFF8BC08BC9E467047AE
:101C1C000000000000000000010203040607080990
:101C2C0002030405060708090A0B0C0D0E0F101011
:041C3C0001020000A1
:041C40003101000866
:041C44000D01000886
:101C48000500000002000000030000000024F4006A
:081C5800100000000100000073
:04000005080008A542
:00000001FF
