:020000040800F2
:10000000002800205D130008ED120008F31200081C
:10001000F9120008FF120008051300080000000094
:100020000000000000000000000000000B130008AA
:100030001713000800000000231300082F13000806
:10004000A5130008A5130008A5130008A5130008B0
:10005000A5130008A5130008A5130008A5130008A0
:10006000A5130008A5130008A5130008A513000890
:10007000A5130008A5130008A5130008A513000880
:10008000A5130008A5130008A5130008A513000870
:10009000A5130008A5130008A5130008A513000860
:1000A000A5130008A5130008A5130008A513000850
:1000B0003D130008A513000800000000A513000868
:1000C000A51300080000000000000000A5130008B0
:1000D00000000000A5130008A513000800000000A0
:1000E000A5130008A5130008A513000800000000D0
:1000F0000000000000000000000000000000000000
:0C01000000000000000000005FF808F1A3
:10010C0010B5054C237833B9044B13B10448AFF345
:10011C0000800123237010BD2C0000200000000083
:10012C00BC29000808B5034B1BB103490348AFF3C6
:10013C00008008BD0000000030000020BC29000831
:10014C0080B400AF034B01221A6000BFBD4680BCD7
:10015C00704700BF4800002080B500AF204B1B68E3
:10016C00204A1360204B1B681D4A13604FF48051CA
:10017C001E4801F0FDFB03461A461B4B1A60194B37
:10018C001A68174B1B689A4228D1154B1A68164BE4
:10019C001B689A4222D1164B1A68134B1B689A4261
:1001AC000DD0114B1B68124A13600F4B1B68002BB0
:1001BC0014D1FFF7C5FF0F4BC8221A600EE00D4B90
:1001CC001B68013B0B4A13600A4B1B68002B05D1C3
:1001DC00074B01221A60074BC8221A6000BF80BD72
:1001EC00040000200000002008000020000801404E
:1001FC000C0000201000002080B582B000AF7860A9
:10020C0039607B68032B00F21C8401A252F823F0A6
:10021C002D0200080B040008EF0500081D0800085B
:10022C003B68002B14D101220121BD4801F0B7FB22
:10023C0001220221BA4801F0B2FB01220421B84884
:10024C0001F0ADFB01220821B54801F0A8FBD6E076
:10025C003B68012B14D100220121B14801F09FFB16
:10026C0001220221AE4801F09AFB01220421AC4884
:10027C0001F095FB01220821A94801F090FBBEE09A
:10028C003B68022B14D101220121A54801F087FB08
:10029C0000220221A24801F082FB01220421A04885
:1002AC0001F07DFB012208219D4801F078FBA6E0BE
:1002BC003B68032B14D100220121994801F06FFBFC
:1002CC0000220221964801F06AFB01220421944885
:1002DC0001F065FB01220821914801F060FB8EE0E2
:1002EC003B68042B14D1012201218D4801F057FBEE
:1002FC00012202218A4801F052FB00220421884885
:10030C0001F04DFB01220821854801F048FB76E005
:10031C003B68052B14D100220121814801F03FFBE1
:10032C00012202217E4801F03AFB002204217C4884
:10033C0001F035FB01220821794801F030FB5EE029
:10034C003B68062B14D101220121754801F027FBD3
:10035C0000220221724801F022FB00220421704885
:10036C0001F01DFB012208216D4801F018FB46E04D
:10037C003B68072B14D100220121694801F00FFBC7
:10038C0000220221664801F00AFB00220421644885
:10039C0001F005FB01220821614801F000FB2EE071
:1003AC003B68082B14D1012201215D4801F0F7FABA
:1003BC00012202215A4801F0F2FA01220421584884
:1003CC0001F0EDFA00220821554801F0E8FA16E098
:1003DC003B68092B13D100220121514801F0DFFAAF
:1003EC00012202214E4801F0DAFA012204214C4884
:1003FC0001F0D5FA00220821494801F0D0FA3B68F7
:10040C00002B14D101221021454801F0C8FA012219
:10041C002021434801F0C3FA01224021404801F059
:10042C00BEFA012280213E4801F0B9FAD9E03B68BE
:10043C00012B14D100221021394801F0B0FA01220D
:10044C002021374801F0ABFA01224021344801F059
:10045C00A6FA01228021324801F0A1FAC1E03B68E2
:10046C00022B14D1012210212D4801F098FA002200
:10047C0020212B4801F093FA01224021284801F059
:10048C008EFA01228021264801F089FAA9E03B6806
:10049C00032B14D100221021214801F080FA0022F4
:1004AC0020211F4801F07BFA012240211C4801F059
:1004BC0076FA012280211A4801F071FA91E03B682A
:1004CC00042B14D101221021154801F068FA0122E5
:1004DC002021134801F063FA00224021104801F05A
:1004EC005EFA012280210E4801F059FA79E03B684E
:1004FC00052B17D100221021094801F050FA0122D6
:10050C002021074801F04BFA00224021044801F059
:10051C0046FA01228021024801F041FA61E000BF55
:10052C00000C01403B68062B14D101221021C64857
:10053C0001F035FA00222021C34801F030FA0022E4
:10054C004021C14801F02BFA01228021BE4801F064
:10055C0026FA46E03B68072B14D100221021BA483A
:10056C0001F01DFA00222021B74801F018FA0022F0
:10057C004021B54801F013FA01228021B24801F064
:10058C000EFA2EE03B68082B14D101221021AE4844
:10059C0001F005FA01222021AB4801F000FA0122FA
:1005AC004021A94801F0FBF900228021A64801F066
:1005BC00F6F916E03B68092B13D100221021A24852
:1005CC0001F0EDF9012220219F4801F0E8F9012208
:1005DC0040219D4801F0E3F9002280219A4801F066
:1005EC00DEF93B68002B18D101224FF4807196483C
:1005FC0001F0D5F901224FF40071934801F0CFF9C5
:10060C0001224FF48061904801F0C9F901224FF4A6
:10061C0000618D4801F0C3F9FAE03B68012B18D159
:10062C0000224FF48071884801F0B9F901224FF48F
:10063C000071854801F0B3F901224FF480618248C2
:10064C0001F0ADF901224FF400617F4801F0A7F9E8
:10065C00DEE03B68022B18D101224FF480717A48FE
:10066C0001F09DF900224FF40071774801F097F9E1
:10067C0001224FF48061744801F091F901224FF48A
:10068C000061714801F08BF9C2E03B68032B18D173
:10069C0000224FF480716C4801F081F900224FF474
:1006AC000071694801F07BF901224FF480616648C2
:1006BC0001F075F901224FF40061634801F06FF904
:1006CC00A6E03B68042B18D101224FF480715E48E0
:1006DC0001F065F901224FF400715B4801F05FF9FC
:1006EC0000224FF48061584801F059F901224FF46F
:1006FC000061554801F053F98AE03B68052B18D18D
:10070C0000224FF48071504801F049F901224FF456
:10071C0000714D4801F043F900224FF480614A48C2
:10072C0001F03DF901224FF40061474801F037F91F
:10073C006EE03B68062B18D101224FF480714248C1
:10074C0001F02DF900224FF400713F4801F027F918
:10075C0000224FF480613C4801F021F901224FF452
:10076C000061394801F01BF952E03B68072B18D1A6
:10077C0000224FF48071344801F011F900224FF43B
:10078C000071314801F00BF900224FF480612E48C2
:10079C0001F005F901224FF400612B4801F0FFF83C
:1007AC0036E03B68082B18D101224FF480712648A3
:1007BC0001F0F5F801224FF40071234801F0EFF835
:1007CC0001224FF48061204801F0E9F800224FF437
:1007DC0000611D4801F0E3F81AE03B68092B17D1C2
:1007EC0000224FF48071184801F0D9F801224FF41F
:1007FC000071154801F0D3F801224FF480611248C2
:10080C0001F0CDF800224FF400610F4801F0C7F859
:10081C003B68002B1AD101224FF480510A4801F099
:10082C00BEF801224FF40051074801F0B8F801223C
:10083C004FF48041044801F0B2F801224FF400411A
:10084C00014801F0ACF8FCE0000C01403B68012BC6
:10085C0018D100224FF480517C4801F0A0F80122FD
:10086C004FF40051794801F09AF801224FF480417D
:10087C00764801F094F801224FF40041734801F0DE
:10088C008EF8DEE03B68022B18D101224FF4805128
:10089C006E4801F084F800224FF400516B4801F0CF
:1008AC007EF801224FF48041684801F078F801226B
:1008BC004FF40041654801F072F8C2E03B68032B2D
:1008CC0018D100224FF48051604801F068F80022E2
:1008DC004FF400515D4801F062F801224FF4804161
:1008EC005A4801F05CF801224FF40041574801F0DE
:1008FC0056F8A6E03B68042B18D101224FF4805126
:10090C00524801F04CF801224FF400514F4801F0CD
:10091C0046F800224FF480414C4801F040F8012287
:10092C004FF40041494801F03AF88AE03B68052B46
:10093C0018D100224FF48051444801F030F80122C4
:10094C004FF40051414801F02AF800224FF4804145
:10095C003E4801F024F801224FF400413B4801F0DD
:10096C001EF86EE03B68062B18D101224FF4805123
:10097C00364801F014F800224FF40051334801F0CE
:10098C000EF800224FF48041304801F008F80122A3
:10099C004FF400412D4801F002F852E03B68072B60
:1009AC0018D100224FF48051284800F0F8FF0022A3
:1009BC004FF40051254800F0F2FF00224FF4804123
:1009CC00224800F0ECFF01224FF400411F4800F0D8
:1009DC00E6FF36E03B68082B18D101224FF480511A
:1009EC001A4800F0DCFF01224FF40051174800F0C8
:1009FC00D6FF01224FF48041144800F0D0FF0022B2
:100A0C004FF40041114800F0CAFF1AE03B68092B73
:100A1C0017D100224FF480510C4800F0C0FF012286
:100A2C004FF40051094800F0BAFF01224FF4804105
:100A3C00064800F0B4FF00224FF40041034800F0D8
:100A4C00AEFF00BF0837BD4680BD00BF000C0140A3
:100A5C0080B582B000AF00237B600AE0094A7B6856
:100A6C0052F8233019467868FFF7C6FB7B680133D0
:100A7C007B607B68032BF1DD00BF00BF0837BD46F0
:100A8C0080BD00BF5000002080B500AF7F4B1B68BD
:100A9C00042B00F2EF8001A252F823F0BD0A0008EB
:100AAC00DF0A0008410B0008B10B0008110C00080C
:100ABC0000F0AAF9754B01221A60754B1B68642271
:100ACC0002FB03F3184600F00FFB642000F020FB40
:100ADC00D9E000F02BF900F06BF96E4B1B68012B81
:100AEC0014D1642000F014FB6B4B1B68013B6A4A69
:100AFC0013606A4B1B68013B684A1360674B1B68A9
:100B0C00002B03DC664B1B68644A1360654B1B6847
:100B1C00012B40F0B180624B1B68642202FB03F393
:100B2C00184600F0E1FA642000F0F2FA574B02226A
:100B3C001A60A1E000F0FAF800F050F9554B1B6870
:100B4C00012B1CD1642000F0E3FA534B1B68013BD2
:100B5C00514A1360504B1B68002B03DC4C4B1B6839
:100B6C004D4A13604D4B1B68013B4C4A13604B4B79
:100B7C001B68002B03DC4C4B1B68484A1360494B29
:100B8C001B68012B7AD1424B1B68642202FB03F3D6
:100B9C00184600F0A9FA642000F0BAFA3B4B032285
:100BAC001A606BE000F0EEF800F002F9394B1B68AC
:100BBC00012B14D1642000F0ABFA384B1B68013BBD
:100BCC00364A1360344B1B68013B334A1360324B7B
:100BDC001B68002B03DC324B1B682F4A1360314B14
:100BEC001B68012B4CD12E4B1B68642202FB03F3B8
:100BFC00184600F079FA642000F08AFA234B04229C
:100C0C001A603DE000F0A8F800F0D2F8214B1B6808
:100C1C00012B1CD1642000F07BFA204B1B68013B9C
:100C2C001E4A13601D4B1B68002B03DC184B1B6802
:100C3C001A4A1360184B1B68013B174A1360164B7A
:100C4C001B68002B03DC184B1B68134A1360154BF5
:100C5C001B68012B16D10E4B1B68642202FB03F39D
:100C6C00184600F041FA642000F052FA074B0122BA
:100C7C001A6007E000BF06E000BF04E000BF02E01E
:100C8C0000BF00E000BF00BF80BD00BF4C000020D3
:100C9C001C00002074000020600000206400002074
:100CAC00180000206C0000201400002080B400AF5D
:100CBC001A4B1B681A4A82FB03129210DB17D31AC9
:100CCC00184A1360154B1968154B83FB01239A10B6
:100CDC00CB17D21A13469B0013445B00CA1A114B54
:100CEC005A60114B1B680E4A82FB03129210DB17E1
:100CFC00D31A0C4A93600C4B1968094B83FB0123E4
:100D0C009A10CB17D21A13469B0013445B00CA1AD5
:100D1C00044BDA6000BFBD4680BC70476000002009
:100D2C0067666666500000206400002080B500AF46
:100D3C0000220221074800F032FE0122042105485E
:100D4C0000F02DFE01220821024800F028FE00BF11
:100D5C0080BD00BF0008014080B500AF0122022118
:100D6C00074800F01CFE00220421054800F017FE85
:100D7C0001220821024800F012FE00BF80BD00BF16
:100D8C000008014080B500AF01220221074800F0A5
:100D9C0006FE01220421054800F001FE0022082174
:100DAC00024800F0FCFD00BF80BD00BF0008014000
:100DBC0080B500AF00221021074800F0F0FD0122A1
:100DCC002021054800F0EBFD01224021024800F0F3
:100DDC00E6FD00BF80BD00BF0008014080B500AF3C
:100DEC0001221021074800F0DAFD002220210548DD
:100DFC0000F0D5FD01224021024800F0D0FD00BFDB
:100E0C0080BD00BF0008014080B500AF0122022167
:100E1C000E4800F0C4FD012204210C4800F0BFFD77
:100E2C0001220821094800F0BAFD012210210748CF
:100E3C0000F0B5FD01222021044800F0B0FD012294
:100E4C004021024800F0ABFD00BF80BD000801400E
:100E5C0080B500AF00F0A2FA00F03EF8164801F0A1
:100E6C00E3F900F0C1F800F073F8144B1B68144A56
:100E7C001360144B1B68144A1360012000F05CF9DA
:100E8C00012000F06DF9114B00221A60104B1B6809
:100E9C00012B04D10A2000F04FF9FFF707FF0D4B8F
:100EAC001B68012B04D1192000F05AF9FFF7D0FD73
:100EBC00FFF7EAFDEAE700BF8800002014000020DD
:100ECC00600000201C000020640000204C0000206A
:100EDC007C0000208400002080B590B000AF07F1AA
:100EEC00180328220021184601F05AFD3B1D002250
:100EFC001A605A609A60DA601A610223BB6101239E
:100F0C00BB621023FB6200237B6307F118031846B6
:100F1C0000F05EFD0346002B01D000F0DFF80F233C
:100F2C007B600023BB600023FB6000233B6100233C
:100F3C007B613B1D0021184600F0CAFF0346002BC5
:100F4C0001D000F0CBF800BF4037BD4680BD00009B
:100F5C0080B586B000AF07F1080300221A605A6012
:100F6C009A60DA603B4600221A605A601D4B4FF0C3
:100F7C0080421A601B4B41F63F725A60194B00229B
:100F8C009A60184B0922DA60164B00221A61154B35
:100F9C0000229A61134801F0F7F80346002B01D0A8
:100FAC0000F09CF84FF48053BB6007F1080319461E
:100FBC000C4801F08DFA0346002B01D000F08EF89E
:100FCC0000233B6000237B603B461946054801F03B
:100FDC0059FC0346002B01D000F080F800BF1837F5
:100FEC00BD4680BD8800002080B586B000AF07F1FB
:100FFC00080300221A605A609A60DA602E4B9B69D3
:10100C002D4A43F0040393612B4B9B6903F00403BB
:10101C007B607B68284B9B69274A43F008039361EC
:10102C00254B9B6903F008033B603B6800227E2143
:10103C00224800F0B4FC00224CF2FF71204800F072
:10104C00AEFC7E23BB600123FB6000233B610223CB
:10105C007B6107F108031946184800F00FFB4CF2AE
:10106C00FF73BB600123FB6000233B6102237B61A8
:10107C0007F108031946124800F000FB4FF46053C7
:10108C00BB600023FB6001233B6107F10803194699
:10109C000B4800F0F3FA4FF46053BB600023FB6085
:1010AC0001233B6107F108031946044800F0E6FAF6
:1010BC0000BF1837BD4680BD00100240000801403B
:1010CC00000C014080B582B000AF786000F05CF895
:1010DC00FFF742F800BF0837BD4680BD80B400AFB3
:1010EC0072B600BFFEE7000080B483B000AF78603A
:1010FC00054A7B681360054B00221A6000BF0C3751
:10110C00BD4680BC704700BF680000206C0000200A
:10111C0080B483B000AF7860054A7B681360054BE0
:10112C0000221A6000BF0C37BD4680BC704700BF60
:10113C00700000207400002080B483B000AF786091
:10114C00054A7B681360054B00221A6000BF0C3700
:10115C00BD4680BC704700BF780000207C0000209A
:10116C0080B483B000AF7860054A7B681360054B90
:10117C0000221A6000BF0C37BD4680BC704700BF10
:10118C00800000208400002080B400AF214B1B683D
:10119C00002B0BDD1F4B1B68013B1E4A13601D4BC4
:1011AC001B68002B02DC1C4B01221A601B4B1B68BA
:1011BC00002B0BDD194B1B68013B184A1360174BB6
:1011CC001B68002B02DC164B01221A60154B1B68A6
:1011DC00002B0BDD134B1B68013B124A1360114BA8
:1011EC001B68002B02DC104B01221A600F4B1B6892
:1011FC00002B0BDD0D4B1B68013B0C4A13600B4B9A
:10120C001B68002B02DC0A4B01221A6000BFBD4692
:10121C0080BC7047680000206C000020700000202B
:10122C0074000020780000207C000020800000204A
:10123C008400002080B485B000AF154B9B69144A24
:10124C0043F001039361124B9B6903F00103BB60F4
:10125C00BB680F4BDB690E4A43F08053D3610C4BD8
:10126C00DB6903F080537B607B680A4B5B68FB6037
:10127C00FB6823F0E063FB60FB6843F08063FB607A
:10128C00044AFB68536000BF1437BD4680BC7047EE
:10129C00001002400000014080B584B000AF7860BF
:1012AC007B681B68B3F1804F13D10C4BDB690B4A85
:1012BC0043F00103D361094BDB6903F00103FB60CD
:1012CC00FB68002200211C2000F0A1F91C2000F07A
:1012DC00BAF900BF1037BD4680BD00BF00100240F8
:1012EC0080B400AFFEE780B400AFFEE780B400AF7F
:1012FC00FEE780B400AFFEE780B400AFFEE780B439
:10130C0000AF00BFBD4680BC704780B400AF00BFCB
:10131C00BD4680BC704780B400AF00BFBD4680BCEA
:10132C00704780B500AF00F07FF800BF80BD0000B3
:10133C0080B500AF024800F0C3FF00BF80BD00BF06
:10134C008800002080B400AF00BFBD4680BC704751
:10135C00FFF7F8FF0B480C490C4A002302E0D45865
:10136C00C4500433C4188C42F9D3094A094C0023E5
:10137C0001E013600432A242FBD301F0EDFAFFF757
:10138C0067FD7047000000202C000020002A000898
:10139C002C000020D4000020FEE7000080B500AF38
:1013AC00084B1B68074A43F010031360032000F03E
:1013BC0023F90F2000F008F8FFF73CFF0023184634
:1013CC0080BD00BF0020024080B582B000AF7860C5
:1013DC00124B1A68124B1B7819464FF47A73B3FBF5
:1013EC00F1F3B2FBF3F3184600F03BF90346002B84
:1013FC0001D001230EE07B680F2B0AD800227968FC
:10140C004FF0FF3000F003F9064A7B6813600023AD
:10141C0000E0012318460837BD4680BD200000209F
:10142C00280000202400002080B400AF054B1B785E
:10143C001A46054B1B681344034A136000BFBD4694
:10144C0080BC704728000020D000002080B400AF82
:10145C00024B1B681846BD4680BC7047D00000206C
:10146C0080B485B000AF78607B6803F00703FB6045
:10147C000C4BDB68BB60BA684FF6FF031340BB60D4
:10148C00FB681A02BB68134343F0BF6343F4003399
:10149C00BB60044ABB68D36000BF1437BD4680BC38
:1014AC00704700BF00ED00E080B400AF044BDB6878
:1014BC001B0A03F007031846BD4680BC704700BFEB
:1014CC0000ED00E080B483B000AF0346FB7197F9E8
:1014DC000730002B0BDBFB7903F01F02064997F951
:1014EC0007305B09012000FA02F241F8232000BF0B
:1014FC000C37BD4680BC704700E100E080B483B07F
:10150C0000AF03463960FB7197F90730002B0ADBFB
:10151C003B68DAB20C4997F907301201D2B20B448E
:10152C0083F800230AE03B68DAB20849FB7903F040
:10153C000F03043B1201D2B20B441A7600BF0C37D6
:10154C00BD4680BC704700BF00E100E000ED00E04C
:10155C0080B489B000AFF860B9607A60FB6803F0C2
:10156C000703FB61FB69C3F10703042B28BF0423AA
:10157C00BB61FB690433062B02D9FB69033B00E01A
:10158C0000237B614FF0FF32BB6902FA03F3DA43AD
:10159C00BB681A407B699A404FF0FF317B6901FAB6
:1015AC0003F3D9437B680B40134318462437BD46DD
:1015BC0080BC704780B582B000AF78607B68013B1F
:1015CC00B3F1807F01D301230FE00A4A7B68013B12
:1015DC0053600F214FF0FF30FFF790FF054B0022B7
:1015EC009A60044B07221A60002318460837BD4640
:1015FC0080BD00BF10E000E080B582B000AF786025
:10160C007868FFF72DFF00BF0837BD4680BD80B559
:10161C0086B000AF0346B9607A60FB7300237B6130
:10162C00FFF742FF78617A68B9687869FFF790FF35
:10163C00024697F90F3011461846FFF75FFF00BFBF
:10164C001837BD4680BD80B582B000AF0346FB7134
:10165C0097F907301846FFF735FF00BF0837BD462E
:10166C0080BD80B582B000AF78607868FFF7A2FFCC
:10167C00034618460837BD4680BD000080B48BB0C9
:10168C0000AF7860396000237B6200233B6248E145
:10169C0001227B6A02FA03F3FB613B681B68FA695F
:1016AC001340BB61BA69FB699A4240F037813B68D1
:1016BC005B68A34A93425ED0A14A934275D8A14A73
:1016CC00934258D09F4A93426FD89F4A934252D02C
:1016DC009D4A934269D89D4A93424CD09B4A93426F
:1016EC0063D89B4A934246D0994A93425DD8122BB9
:1016FC002AD8122B59D801A252F823F083170008CC
:10170C005D1700086F170008B1170008B71700081D
:10171C00B7170008B7170008B7170008B717000865
:10172C00B7170008B7170008B7170008B717000855
:10173C00B7170008B7170008B7170008B717000845
:10174C006517000879170008824A934213D02CE0E1
:10175C003B68DB683B6229E03B68DB6804333B6237
:10176C0024E03B68DB6808333B621FE03B68DB68C6
:10177C000C333B621AE03B689B68002B02D10423BC
:10178C003B6213E03B689B68012B05D108233B624D
:10179C007B68FA691A6109E008233B627B68FA6985
:1017AC005A6103E000233B6200E000BFBB69FF2BE2
:1017BC0001D87B6801E07B6804337B61BB69FF2B3C
:1017CC0002D87B6A9B0002E07B6A083B9B003B6172
:1017DC007B691A680F213B6901FA03F3DB431A405A
:1017EC00396A3B6901FA03F31A437B691A603B6857
:1017FC005B6803F08053002B00F09080564B9B6984
:10180C00554A43F001039361534B9B6903F0010369
:10181C00BB60BB68514A7B6A9B08023352F8233089
:10182C00FB607B6A03F003039B000F2202FA03F3B5
:10183C00DB43FA681340FB607B68494A93420DD046
:10184C007B68484A934207D07B68474A934201D150
:10185C00022304E0032302E0012300E000237A6A60
:10186C0002F0030292009340FA681343FB603B4979
:10187C007B6A9B080233FA6841F823203B685B685B
:10188C0003F48013002B06D0384B9A683749BB6998
:10189C0013438B6006E0354B9A68BB69DB433349D5
:1018AC0013408B603B685B6803F40013002B06D07D
:1018BC002E4BDA682D49BB691343CB6006E02B4BEA
:1018CC00DA68BB69DB4329491340CB603B685B6832
:1018DC0003F40033002B06D0244B5A682349BB6910
:1018EC0013434B6006E0214B5A68BB69DB431F492D
:1018FC0013404B603B685B6803F48033002B06D0CD
:10190C001A4B1A681949BB6913430B6006E0174B55
:10191C001A68BB69DB43154913400B607B6A0133C2
:10192C007B623B681A687B6A22FA03F3002B7FF414
:10193C00AFAE00BF00BF2C37BD4680BC704700BFA8
:10194C0000003210000031100000221000002110A5
:10195C0000001210000011100010024000000140A5
:10196C0000080140000C014000100140000401403F
:10197C0080B485B000AF78600B467B807B689A683A
:10198C007B881340002B02D00123FB7301E0002362
:10199C00FB73FB7B18461437BD4680BC704780B484
:1019AC0083B000AF78600B467B8013467B707B78EE
:1019BC00002B03D07A887B681A6103E07B881A04B9
:1019CC007B681A6100BF0C37BD4680BC70470000B5
:1019DC0080B586B000AF78607B68002B01D1012305
:1019EC006CE27B681B6803F00103002B00F087801E
:1019FC00924B5B6803F00C03042B0CD08F4B5B6891
:101A0C0003F00C03082B12D18C4B5B6803F480336E
:101A1C00B3F5803F0BD1894B1B6803F40033002BCB
:101A2C006CD07B685B68002B68D1012346E27B6835
:101A3C005B68B3F5803F06D1804B1B687F4A43F44B
:101A4C00803313602EE07B685B68002B0CD17B4BE2
:101A5C001B687A4A23F480331360784B1B68774AEF
:101A6C0023F4802313601DE07B685B68B3F5A02F23
:101A7C000CD1724B1B68714A43F4802313606F4B7B
:101A8C001B686E4A43F4803313600BE06B4B1B688E
:101A9C006A4A23F480331360684B1B68674A23F44B
:101AAC00802313607B685B68002B13D0FFF7CEFCA0
:101ABC00386108E0FFF7CAFC02463B69D31A642B75
:101ACC0001D90323FAE15D4B1B6803F40033002BAF
:101ADC00F0D014E0FFF7BAFC386108E0FFF7B6FC71
:101AEC0002463B69D31A642B01D90323E6E1534B1D
:101AFC001B6803F40033002BF0D100E000BF7B68BF
:101B0C001B6803F00203002B63D04C4B5B6803F0A3
:101B1C000C03002B0BD0494B5B6803F00C03082B18
:101B2C001CD1464B5B6803F48033002B16D1434B1E
:101B3C001B6803F00203002B05D07B681B69012B8B
:101B4C0001D00123BAE13D4B1B6823F0F8027B68FE
:101B5C005B69DB00394913430B603AE07B681B6916
:101B6C00002B20D0364B01221A60FFF76FFC386136
:101B7C0008E0FFF76BFC02463B69D31A022B01D934
:101B8C0003239BE12D4B1B6803F00203002BF0D0C9
:101B9C002A4B1B6823F0F8027B685B69DB00274942
:101BAC0013430B6015E0264B00221A60FFF74EFC26
:101BBC00386108E0FFF74AFC02463B69D31A022B56
:101BCC0001D903237AE11D4B1B6803F00203002BA0
:101BDC00F0D17B681B6803F00803002B3AD07B68BC
:101BEC009B69002B19D0174B01221A60FFF72EFCB2
:101BFC00386108E0FFF72AFC02463B69D31A022B36
:101C0C0001D903235AE10D4B5B6A03F00203002B4D
:101C1C00F0D0012000F09AFA1CE00A4B00221A6066
:101C2C00FFF714FC38610FE0FFF710FC02463B692C
:101C3C00D31A022B08D9032340E100BF0010024045
:101C4C0000004242800442429E4B5B6A03F0020356
:101C5C00002BE9D17B681B6803F00403002B00F018
:101C6C00A6800023FB75974BDB6903F08053002B98
:101C7C000DD1944BDB69934A43F08053D361914B64
:101C8C00DB6903F08053BB60BB680123FB758E4B93
:101C9C001B6803F48073002B18D18B4B1B688A4A8A
:101CAC0043F480731360FFF7D1FB386108E0FFF752
:101CBC00CDFB02463B69D31A642B01D90323FDE00B
:101CCC00814B1B6803F48073002BF0D07B68DB68BE
:101CDC00012B06D17B4B1B6A7A4A43F0010313623A
:101CEC002DE07B68DB68002B0CD1764B1B6A754AA8
:101CFC0023F001031362734B1B6A724A23F0040333
:101D0C0013621CE07B68DB68052B0CD16D4B1B6AE6
:101D1C006C4A43F0040313626A4B1B6A694A43F032
:101D2C00010313620BE0674B1B6A664A23F0010345
:101D3C001362644B1B6A634A23F0040313627B68CF
:101D4C00DB68002B15D0FFF781FB38610AE0FFF749
:101D5C007DFB02463B69D31A41F28832934201D98A
:101D6C000323ABE0574B1B6A03F00203002BEED0AE
:101D7C0014E0FFF76BFB38610AE0FFF767FB0246E4
:101D8C003B69D31A41F28832934201D9032395E07F
:101D9C004C4B1B6A03F00203002BEED1FB7D012B95
:101DAC0005D1484BDB69474A23F08053D3617B68EC
:101DBC00DB69002B00F08180424B5B6803F00C0365
:101DCC00082B61D07B68DB69022B46D13F4B00228C
:101DDC001A60FFF73BFB386108E0FFF737FB024660
:101DEC003B69D31A022B01D9032367E0354B1B68DF
:101DFC0003F00073002BF0D17B681B6AB3F5803FB6
:101E0C0008D1304B5B6823F400327B689B682D490A
:101E1C0013434B602B4B5B6823F474127B68196A79
:101E2C007B685B6A0B43274913434B60274B0122AA
:101E3C001A60FFF70BFB386108E0FFF707FB02465F
:101E4C003B69D31A022B01D9032337E01D4B1B68C6
:101E5C0003F00073002BF0D02FE01C4B00221A6013
:101E6C00FFF7F4FA386108E0FFF7F0FA02463B6935
:101E7C00D31A022B01D9032320E0124B1B6803F069
:101E8C000073002BF0D118E07B68DB69012B01D1CA
:101E9C00012313E00B4B5B68FB60FB6803F480329F
:101EAC007B681B6A9A4206D1FB6803F470127B684C
:101EBC005B6A9A4201D0012300E0002318461837D0
:101ECC00BD4680BD001002400070004060004242E0
:101EDC0080B584B000AF786039607B68002B01D18D
:101EEC000123D0E06A4B1B6803F007033A689A425F
:101EFC0010D9674B1B6823F0070265493B681343F5
:101F0C000B60634B1B6803F007033A689A4201D0DD
:101F1C000123B8E07B681B6803F00203002B20D080
:101F2C007B681B6803F00403002B05D0594B5B68DE
:101F3C00584A43F4E06353607B681B6803F0080362
:101F4C00002B05D0534B5B68524A43F460535360EB
:101F5C00504B5B6823F0F0027B689B684D49134340
:101F6C004B607B681B6803F00103002B40D07B683F
:101F7C005B68012B07D1474B1B6803F40033002B24
:101F8C0015D101237FE07B685B68022B07D1414BA5
:101F9C001B6803F00073002B09D1012373E03D4B48
:101FAC001B6803F00203002B01D101236BE0394BBA
:101FBC005B6823F003027B685B68364913434B6014
:101FCC00FFF744FAF8600AE0FFF740FA0246FB68B4
:101FDC00D31A41F28832934201D9032353E02D4B9B
:101FEC005B6803F00C027B685B689B009A42EBD148
:101FFC00274B1B6803F007033A689A4210D2244B14
:10200C001B6823F0070222493B6813430B60204BEB
:10201C001B6803F007033A689A4201D0012332E0AF
:10202C007B681B6803F00403002B08D0194B5B681A
:10203C0023F4E0627B68DB68164913434B607B68D2
:10204C001B6803F00803002B09D0124B5B6823F4C8
:10205C0060527B681B69DB000E4913434B6000F038
:10206C0021F802460B4B5B681B0903F00F030A496E
:10207C00CB5C22FA03F3094A1360094B1B68184620
:10208C00FFF7A2F9002318461037BD4680BD00BFEC
:10209C000020024000100240D4290008200000203B
:1020AC002400002080B487B000AF0023FB60002325
:1020BC00BB6000237B6100237B6000233B611E4BD4
:1020CC005B68FB60FB6803F00C03042B02D0082B4D
:1020DC0003D027E0194B3B6127E0FB689B0C03F016
:1020EC000F03174AD35C7B60FB6803F48033002B2F
:1020FC0010D0114B5B685B0C03F00103114AD35CED
:10210C00BB607B680D4A02FB03F2BB68B2FBF3F3C6
:10211C007B6104E07B680C4A02FB03F37B617B6907
:10212C003B6102E0054B3B6100BF3B6918461C3725
:10213C00BD4680BC704700BF0010024000127A0000
:10214C00E4290008F429000800093D0080B485B09A
:10215C0000AF78600A4B1B680A4AA2FB03235B0A98
:10216C007A6802FB03F3FB6000BFFB685A1EFA603F
:10217C00002BF9D100BF00BF1437BD4680BC70479F
:10218C0020000020D34D621080B582B000AF786083
:10219C007B68002B01D1012341E07B6893F83D3033
:1021AC00DBB2002B06D17B68002283F83C207868D8
:1021BC00FFF772F87B68022283F83D207B681A686F
:1021CC007B6804331946104600F06EFA7B680122D6
:1021DC0083F846207B68012283F83E207B6801222D
:1021EC0083F83F207B68012283F840207B68012222
:1021FC0083F841207B68012283F842207B6801220E
:10220C0083F843207B68012283F844207B680122F9
:10221C0083F845207B68012283F83D200023184673
:10222C000837BD4680BD000080B485B000AF786033
:10223C007B6893F83D30DBB2012B01D0012335E0F4
:10224C007B68022283F83D207B681B68DA687B6818
:10225C001B6842F00102DA607B681B68164A9342E5
:10226C0009D07B681B68B3F1804F04D07B681B6876
:10227C00124A934211D17B681B689B6803F00703D9
:10228C00FB60FB68062B10D07B681B681A687B68A8
:10229C001B6842F001021A6007E07B681B681A6831
:1022AC007B681B6842F001021A6000231846143741
:1022BC00BD4680BC704700BF002C014000040040AC
:1022CC0080B582B000AF78607B681B681B6903F037
:1022DC000203022B22D17B681B68DB6803F002032C
:1022EC00022B1BD17B681B686FF002021A617B68A2
:1022FC0001221A777B681B689B6903F00303002B90
:10230C0003D0786800F0B4F905E0786800F0A7F91C
:10231C00786800F0B6F97B6800221A777B681B6836
:10232C001B6903F00403042B22D17B681B68DB6858
:10233C0003F00403042B1BD17B681B686FF00402B1
:10234C001A617B6802221A777B681B689B6903F40D
:10235C004073002B03D0786800F08AF905E07868A8
:10236C0000F07DF9786800F08CF97B6800221A7710
:10237C007B681B681B6903F00803082B22D17B6860
:10238C001B68DB6803F00803082B1BD17B681B68F8
:10239C006FF008021A617B6804221A777B681B684D
:1023AC00DB6903F00303002B03D0786800F060F9BD
:1023BC0005E0786800F053F9786800F062F97B6802
:1023CC0000221A777B681B681B6903F01003102B23
:1023DC0022D17B681B68DB6803F01003102B1BD128
:1023EC007B681B686FF010021A617B6808221A77F1
:1023FC007B681B68DB6903F44073002B03D078689F
:10240C0000F036F905E0786800F029F9786800F0FA
:10241C0038F97B6800221A777B681B681B6903F00C
:10242C000103012B0ED17B681B68DB6803F00103F1
:10243C00012B07D17B681B686FF001021A61786869
:10244C00FEF740FE7B681B681B6903F08003802B42
:10245C000ED17B681B68DB6803F08003802B07D1EF
:10246C007B681B686FF080021A61786800F06BFA69
:10247C007B681B681B6903F04003402B0ED17B6803
:10248C001B68DB6803F04003402B07D17B681B689B
:10249C006FF040021A61786800F0FCF87B681B68EA
:1024AC001B6903F02003202B0ED17B681B68DB68B3
:1024BC0003F02003202B07D17B681B686FF02002F0
:1024CC001A61786800F036FA00BF0837BD4680BD47
:1024DC0080B584B000AF786039600023FB737B68F3
:1024EC0093F83C30012B01D10223B4E07B6801222C
:1024FC0083F83C207B68022283F83D207B681B68B4
:10250C009B68BB60BB6823F07703BB60BB6823F49C
:10251C007F43BB607B681B68BA689A603B681B682A
:10252C00B3F5005F3ED0B3F5005F00F28780B3F5E2
:10253C00805F00F08680B3F5805F7FD8702B1AD057
:10254C00702B7BD8602B50D0602B77D8502B3CD085
:10255C00502B73D8402B58D0402B6FD8302B64D0D5
:10256C00302B6BD8202B60D0202B67D8002B5CD065
:10257C00102B5AD062E07B6818683B6899683B68FE
:10258C005A683B68DB6800F05EF97B681B689B68E7
:10259C00BB60BB6843F07703BB607B681B68BA68A1
:1025AC009A604FE07B6818683B6899683B685A688A
:1025BC003B68DB6800F047F97B681B689A687B68AE
:1025CC001B6842F480429A603CE07B6818683B6868
:1025DC0059683B68DB681A4600F0BEF87B681B68DC
:1025EC005021184600F015F92CE07B6818683B6800
:1025FC0059683B68DB681A4600F0DCF87B681B689E
:10260C006021184600F005F91CE07B6818683B68EF
:10261C0059683B68DB681A4600F09EF87B681B68BB
:10262C004021184600F0F5F80CE07B681A683B680E
:10263C001B681946104600F0ECF803E00123FB730D
:10264C0000E000BF7B68012283F83D207B680022FC
:10265C0083F83C20FB7B18461037BD4680BD80B408
:10266C0083B000AF786000BF0C37BD4680BC7047AC
:10267C0080B483B000AF786000BF0C37BD4680BC1F
:10268C00704780B483B000AF786000BF0C37BD4694
:10269C0080BC704780B483B000AF786000BF0C374B
:1026AC00BD4680BC7047000080B485B000AF786038
:1026BC0039607B681B68FB607B68254A934207D0B6
:1026CC007B68B3F1804F03D07B68224A934208D1D8
:1026DC00FB6823F07003FB603B685B68FA6813438C
:1026EC00FB607B681A4A934207D07B68B3F1804F3A
:1026FC0003D07B68174A934208D1FB6823F44073DC
:10270C00FB603B68DB68FA681343FB60FB6823F0F3
:10271C0080023B685B691343FB607B68FA681A6054
:10272C003B689A687B68DA623B681A687B689A62D5
:10273C007B68074A934203D13B681A697B681A632A
:10274C007B6801225A6100BF1437BD4680BC7047BC
:10275C00002C01400004004080B487B000AFF8604A
:10276C00B9607A60FB681B6A7B61FB681B6A23F0AB
:10277C000102FB681A62FB689B693B613B6923F0B1
:10278C00F0033B617B681B013A6913433B617B6936
:10279C0023F00A037B617A69BB6813437B61FB6896
:1027AC003A699A61FB687A691A6200BF1C37BD46A8
:1027BC0080BC704780B487B000AFF860B9607A60B5
:1027CC00FB681B6A7B61FB681B6A23F01002FB68C9
:1027DC001A62FB689B693B613B6923F470433B6164
:1027EC007B681B033A6913433B617B6923F0A003AD
:1027FC007B61BB681B017A6913437B61FB683A6997
:10280C009A61FB687A691A6200BF1C37BD4680BCAE
:10281C00704780B485B000AF786039607B689B6886
:10282C00FB60FB6823F07003FB603A68FB681343A2
:10283C0043F00703FB607B68FA689A6000BF1437AB
:10284C00BD4680BC704780B487B000AFF860B960FB
:10285C007A603B60FB689B687B617B6923F47F43F8
:10286C007B613B681A027B681A43BB6813437A6925
:10287C0013437B61FB687A699A6000BF1C37BD46C5
:10288C0080BC704780B485B000AF786039607B68DD
:10289C0093F83C30012B01D1022341E07B680122EB
:1028AC0083F83C207B68022283F83D207B681B6800
:1028BC005B68FB607B681B689B68BB60FB6823F0F4
:1028CC007003FB603B681B68FA681343FB607B6812
:1028DC001B68FA685A607B681B68144A934209D0DB
:1028EC007B681B68B3F1804F04D07B681B68104A6F
:1028FC0093420CD1BB6823F08003BB603B685B68E0
:10290C00BA681343BB607B681B68BA689A607B68C3
:10291C00012283F83D207B68002283F83C200023B1
:10292C0018461437BD4680BC704700BF002C0140D0
:10293C000004004080B483B000AF786000BF0C3757
:10294C00BD4680BC704780B483B000AF786000BFD8
:10295C000C37BD4680BC704770B500260C4D0D4C35
:10296C00641BA410A64209D100F022F800260A4DDF
:10297C000A4C641BA410A64205D170BD55F8043B4B
:10298C0098470136EEE755F8043B98470136F2E7D5
:10299C00F8290008F8290008F8290008FC29000883
:1029AC0003460244934200D1704703F8011BF9E738
:1029BC00F8B500BFF8BC08BC9E467047F8B500BF20
:0829CC00F8BC08BC9E467047F0
:1029D40000000000000000000102030406070809CB
:1029E40002030405060708090A0B0C0D0E0F10104C
:0429F40001020000DC
:0429F80031010008A1
:0429FC000D010008C1
:102A000001000000010000000100000001000000C2
:102A1000C8000000050000000200000003000000E4
:0C2A20000024F400100000000100000081
:040000050800135D7F
:00000001FF
